:08000000803102288731FA2F3C
:100D160022000C108C100C118C110C128C12080075
:100D260020002108A200A3012208FB002308FC00E2
:100D360087318A2786310800F000F101A52E0000D0
:100D46000130F10770087102031CAA2EAB2EA22EE9
:100D56000800F20024001508F0390638950016142C
:100D66009715723592009516023086319F26863188
:100D76000800F401F501C72E0F3086319F26863113
:100D86000130F4070030F53D73087502031DCD2EC2
:100D960072087402031CD02ED12EBF2E080020002C
:100DA600911DD62ED72EE82E2400141DDB2EDC2E08
:100DB600E12E2000200824009100E42E11082000D6
:100DC600A1002400151620009111080021008C01B5
:100DD60023008C0122008C013F3021008D0023006E
:100DE6008D0121008E1522001D1221000E162200F3
:100DF6009D1110308631AC26863108000030F9008E
:100E06000030F8000030F7006430F600873119270B
:100E16008731563086319F2687318631E9268731DC
:100E2600863193268731132F803102280030FD004A
:100E36000030FC000030FB000030FA002F2F293074
:100E4600F2000030F3008631BC2687310130FA0704
:100E56000030FB3DFC3DFD3D79087D02031D3D2F25
:100E660078087C02031D3D2F77087B02031D3D2F6A
:100E760076087A02031C402F412F222F0800F90121
:100E8600FA017F2F8631D226873120000D0C890C7E
:100E96000139F2000D0CF300F30C730C0139F40068
:100EA6000130F435890B542F0D0E0139F50002304F
:100EB600F535890B5B2F0D0E890C0139F6000330D1
:100EC600F635890B632F0D080139F7000430F73525
:100ED600890B6A2F0D0C0139F8000530F835890B9E
:100EE600712F780877047604750474047204A000E0
:100EF6000130F9070030FA3D71087A02031D852F8B
:100F060070087902031C882F892F452F0800863127
:100F16008B2687317C18902F932F22000C14952F47
:100F260022000C10FB1B982F9B2F22008C149D2F48
:100F360022008C107B1BA02FA32F22000C15A52F9F
:100F460022000C118C110C168C16C830F0000030E3
:100F5600F10087314227873186318B268731FB1A8C
:100F6600B52FB82F22000C14BA2F22000C107B1AB2
:100F7600BD2FC02F22008C14C22F22008C10FB190B
:100F8600C52FC82F22000C15CA2F22000C118C1554
:100F96000C128C16C830F0000030F1008731422761
:100FA600873186318B2687317B19DA2FDD2F220098
:100FB6000C14DF2F22000C10FB18E22FE52F220065
:100FC6008C14E72F22008C107B18EA2FED2F2200BD
:100FD6000C15EF2F22000C118C150C168C12C83034
:100FE600F0000030F10087314227873108002000E9
:0A0FF600A001A10120008731012FA6
:020000040001F9
:04000E00E201FF3FCD
:00000001FF
